:100000000C942A000C9488010C94AC010C943C00D4
:100010000C943C000C943C000C943C000C943C0070
:100020000C943C000C943C000C943C000C943C0060
:100030000C943C000C943C000C943C000C943C0050
:100040000C943C000C943C000C943C000C943C0040
:100050000C943C0011241FBECFE5D8E0DEBFCDBF1D
:1000600020E0A0E6B0E001C01D92A636B207E1F79D
:100070000E94D0010C94F1010C94000080E8809360
:10008000610089E18093600008958F3F29F081111C
:1000900003C01092610008958093610008958091DB
:1000A00061000895803410F080E403C0823008F4C9
:1000B00081E08093600008958091600008958091B0
:1000C000610090916000292F30E0280F311D2F3FF3
:1000D000310514F08FEF01C0890F809361000895FE
:1000E0008091610090916000282F30E0291B310938
:1000F000121613061CF0109261000895891B80935C
:1001000061000895CF93DF9300D000D0CDB7DEB764
:100110006115710581059105F9F069837A838B83F7
:100120009C8316161706180619065CF40E945F00D9
:1001300069817A818B819C81615071098109910962
:10014000E7CF0E94700069817A818B819C816F5F0B
:100150007F4F8F4F9F4FDCCF0F900F900F900F90DE
:10016000DF91CF91089583B78D6783BFBB9A1CBE83
:1001700008958FEF8CBF08951CBE0895811102C0B1
:10018000BB980895BB9BBB9A8CBF08958CB708950C
:100190008BB7806C8BBF089585B7856085BF109243
:1001A00062001092630010926400109265000C943B
:1001B000C80030B320B332FB332730F981E0382751
:1001C00023FB222720F98091620090916300A09187
:1001D0006400B0916500321721F00196A11DB11D98
:1001E00003C00197A109B109809362009093630055
:1001F000A0936400B0936500089530B320B332FB40
:10020000332730F981E0382723FB222720F980911A
:10021000620090916300A0916400B0916500321774
:1002200021F00197A109B10903C00196A11DB11DDB
:100230008093620090936300A0936400B093650084
:1002400008952BB72F732BBF6093620070936300E8
:1002500080936400909365000C94C800CF93DF9363
:1002600000D000D0CDB7DEB78BB78F738BBF609156
:1002700062007091630080916400909165006983D1
:100280007A838B839C830E94C80069817A818B81E9
:100290009C810F900F900F900F90DF91CF91089558
:1002A000CF93DF9300D000D0CDB7DEB78BB78F737D
:1002B0008BBF6091620070916300809164009091A7
:1002C0006500109262001092630010926400109218
:1002D000650069837A838B839C830E94C80069814F
:1002E0007A818B819C810F900F900F900F90DF91FE
:1002F000CF91089586B1866886B917B83E9A089559
:10030000369A349BFECF84B125B190E0922B0895AC
:100310001F920F920FB60F9211242F933F934F937A
:100320005F936F937F938F939F93AF93BF93EF935D
:10033000FF930E94D900FF91EF91BF91AF919F91E0
:100340008F917F916F915F914F913F912F910F907E
:100350000FBE0F901F9018951F920F920FB60F921D
:1003600011242F933F934F935F936F937F938F93BA
:100370009F93AF93BF93EF93FF930E94FD00FF9174
:10038000EF91BF91AF919F918F917F916F915F910D
:100390004F913F912F910F900FBE0F901F90189586
:1003A0000E94B3000E94CC000E947A010E943E008D
:1003B0007894CFE30E9480019C01C29FC001C39F3B
:1003C000900D1124892F869586958F5F0E9452008B
:1003D0000E9450010E9482000E944F000E94BE00B5
:0603E000E9CFF894FFCF05
:00000001FF
